:100000000C942A000C94360E0C9447000C94470074
:100010000C94B50B0C94820B0C944F0B0C941C0B92
:100020000C94E90A0C94B60A0C94830A0C94500AB6
:100030000C9447000C9447000C9447000C94470024
:100040000C9447000C9447000C9447000C94470014
:100050000C94470011241FBECFE5D8E0DEBFCDBF12
:1000600011E0A0E6B0E0E2EAFEE302C005900D92E6
:10007000A438B107D9F711E0A4E8B1E001C01D929E
:10008000AF39B107E1F70E943E190C944F1F0C9451
:100090000000EF92FF920F931F937B018C0120E0F1
:1000A00030E040E05FE40E94F50388238CF0C80153
:1000B000B70120E030E040E05FE40E94C1010E940F
:1000C000B3049B01AC01205030404040504806C072
:1000D000C801B7010E94B3049B01AC01B901CA0178
:1000E0001F910F91FF90EF900895A0E0B0E0EBE733
:1000F000F0E00C94181FDC012B01FA019C91923066
:1001000008F439C1EB018881823008F433C194309E
:1001100069F4843009F02FC111969C91119789815F
:10012000981709F428C1A9E7B0E025C1843009F483
:1001300021C18230A9F4923009F01DC19A01AD01AC
:1001400088E0EA010990AE01E90109929E0181501F
:10015000C1F7E201898111969C918923818308C1AD
:10016000923009F407C112962D903C901397EB0141
:100170008A819B811496AD90BD90CD90DC901797AD
:10018000EC80FD800E811F819101281B390BB90184
:1001900037FF04C066277727621B730B6032710537
:1001A0000CF061C0121613066CF537014801062EDB
:1001B00004C096948794779467940A94D2F721E0C8
:1001C00030E040E050E004C0220F331F441F551FB1
:1001D0006A95D2F721503040404050402E213F21B7
:1001E00040235123211531054105510521F021E01E
:1001F00030E040E050E079018A01E628F72808293C
:1002000019293CC0232BD1F1260E371E350146019A
:10021000062E04C096948794779467940A94D2F734
:1002200021E030E040E050E004C0220F331F441FC3
:10023000551F6A95D2F721503040404050402A2146
:100240003B214C215D21211531054105510521F04E
:1002500021E030E040E050E059016A01A628B728CB
:10026000C828D9280BC0821593052CF01C01AA249C
:10027000BB24650103C0EE24FF24870111969C91E5
:10028000D20111968C91981709F445C0992339F041
:10029000A80197012A193B094C095D0906C0A6016E
:1002A00095012E193F09400B510B57FD08C01182D3
:1002B0003382228224833583468357831DC081E0A5
:1002C00081833382228288279927DC01821B930B4A
:1002D000A40BB50B84839583A683B7830DC0220F2F
:1002E000331F441F551F24833583468357838281E0
:1002F000938101979383828324813581468157813D
:10030000DA01C9010197A109B1098F5F9F4FAF4F72
:10031000BF4328F30BC0918333822282EA0CFB1C7B
:100320000C1D1D1DE482F5820683178383E0808304
:10033000248135814681578157FF1AC0C901AA27F8
:1003400097FDA095BA2F81709070A070B0705695EF
:10035000479537952795822B932BA42BB52B848318
:100360009583A683B7838281938101969383828349
:10037000DF0101C0D201CD01CDB7DEB7E2E10C94BF
:10038000341FA0E2B0E0E7ECF1E00C94241F698395
:100390007A838B839C832D833E834F835887E9E048
:1003A000EE2EF12CEC0EFD1ECE010196B7010E943F
:1003B0002B068E010F5E1F4FCE010596B8010E94DD
:1003C0002B068A8991E089278A8BC701B801AE0183
:1003D000475E5F4F0E9475000E945605A096E6E0BA
:1003E0000C94401FA0E2B0E0E8EFF1E00C94241F71
:1003F00069837A838B839C832D833E834F835887C5
:10040000F9E0EF2EF12CEC0EFD1ECE010196B701A6
:100410000E942B068E010F5E1F4FCE010596B8017C
:100420000E942B06C701B801AE01475E5F4F0E94D4
:1004300075000E945605A096E6E00C94401FA0E2CD
:10044000B0E0E5E2F2E00C94181F69837A838B83B5
:100450009C832D833E834F835887CE010196BE0136
:10046000675F7F4F0E942B06CE010596BE016F5E2F
:100470007F4F0E942B069985923088F089898230BF
:10048000C8F0943019F4823051F404C0843029F457
:10049000923081F489E790E0C6C0923049F420E0C0
:1004A0009A858A89981321E02A87CE010996BBC0D4
:1004B000823049F420E09A858A89981321E02A8BBA
:1004C000CE014196B0C02D843E844F8458886D88FB
:1004D0007E888F88988CEE24FF248701AA24BB2471
:1004E000650140E050E060E070E0E0E0F0E0C10174
:1004F00081709070892BE9F0E60CF71C081D191D1E
:100500009A01AB012A0D3B1D4C1D5D1D80E090E062
:10051000A0E0B0E0E614F7040805190520F481E036
:1005200090E0A0E0B0E0BA01A901480F591F6A1F8E
:100530007B1FAA0CBB1CCC1CDD1C97FE08C081E0F5
:1005400090E0A0E0B0E0A82AB92ACA2ADB2A3196B6
:10055000E032F10549F0660C771C881C991C569412
:10056000479437942794C3CFFA85EA892B893C892D
:100570008B859C85280F391F2E5F3F4F17C0CA01FE
:1005800081709070892B61F016950795F794E79428
:1005900080E090E0A0E0B0E8E82AF92A0A2B1B2BC3
:1005A00076956795579547952F5F3F4F77FDE7CF36
:1005B0000CC0440F551F661F771F17FD4160EE0CDE
:1005C000FF1C001F111F21503040403090E05907A0
:1005D00090E0690790E4790760F32B8F3C8FDB0193
:1005E000CA018F779070A070B07080349105A1051A
:1005F000B10561F447FD0AC0E114F10401051105DC
:1006000029F0405C5F4F6F4F7F4F40781A8EFE1786
:1006100011F081E08A8F4D8F5E8F6F8F78A383E01A
:10062000898FCE0149960E945605A096E2E10C946E
:10063000341FA8E1B0E0EFE1F3E00C94201F6983E0
:100640007A838B839C832D833E834F835887B9E0C5
:10065000EB2EF12CEC0EFD1ECE010196B7010E948F
:100660002B068E010F5E1F4FCE010596B8010E942A
:100670002B062985223008F47EC03989323010F4E7
:10068000B8017CC08A859A8989278A87243011F02D
:10069000223031F4231709F06EC069E770E06EC0B4
:1006A000343039F41D861E861F86188A1C861B86E8
:1006B00004C0323021F484E08987B7015FC02B8504
:1006C0003C858B899C89281B390B3C872B87ED84C3
:1006D000FE840F851889AD88BE88CF88D88CEA142F
:1006E000FB040C051D0540F4EE0CFF1C001F111F40
:1006F000215030403C872B8720E030E040E050E044
:1007000080E090E0A0E0B0E460E070E0EA14FB0478
:100710000C051D0540F0282B392B4A2B5B2BEA18C2
:10072000FB080C091D09B695A79597958795EE0CC2
:10073000FF1C001F111F6F5F7F4F6F31710531F775
:10074000DA01C9018F779070A070B0708034910584
:10075000A105B10561F427FD0AC0E114F10401050A
:10076000110529F0205C3F4F4F4F5F4F20782D87B8
:100770003E874F87588BBE01675F7F4FCB010E943A
:1007800056056896EAE00C943C1FA8E1B0E0EBEC5B
:10079000F3E00C94241F69837A838B839C832D83DD
:1007A0003E834F83588789E0E82EF12CEC0EFD1E26
:1007B000CE010196B7010E942B068E010F5E1F4FDE
:1007C000CE010596B8010E942B068985823040F043
:1007D0008989823028F0C701B8010E94A30601C0B0
:1007E0008FEF6896E6E00C94401FA8E1B0E0EBEFD5
:1007F000F3E00C94241F69837A838B839C832D837D
:100800003E834F83588789E0E82EF12CEC0EFD1EC5
:10081000CE010196B7010E942B068E010F5E1F4F7D
:10082000CE010596B8010E942B068985823040F0E2
:100830008989823028F0C701B8010E94A30601C04F
:100840008FEF6896E6E00C94401FA8E1B0E0EBE281
:10085000F4E00C94241F69837A838B839C832D831B
:100860003E834F83588789E0E82EF12CEC0EFD1E65
:10087000CE010196B7010E942B068E010F5E1F4F1D
:10088000CE010596B8010E942B068985823040F082
:100890008989823028F0C701B8010E94A30601C0EF
:1008A00081E06896E6E00C94401FA8E0B0E0EBE53C
:1008B000F4E00C94211F9B01AC0183E08983DA01F1
:1008C000C9018827B7FD83959927AA27BB27B82E8A
:1008D000211531054105510519F482E089833AC09B
:1008E0008823A9F0203080E0380780E0480780E8BE
:1008F000580729F460E070E080E09FEC30C0EE24FF
:10090000FF248701E21AF30A040B150B02C07901D8
:100910008A018EE1C82ED12CDC82CB82ED82FE8250
:100920000F831887C801B7010E94070501971816A1
:10093000190684F4082E04C0EE0CFF1C001F111FC2
:100940000A94D2F7ED82FE820F831887C81AD90A5B
:10095000DC82CB82BA82CE0101960E94560528968F
:10096000E9E00C943D1FACE0B0E0E9EBF4E00C945E
:10097000281F69837A838B839C83CE010196BE01F5
:100980006B5F7F4F0E942B068D81823061F1823038
:1009900050F1843021F48E81882351F12EC02F81B3
:1009A000388537FD20C06E812F3131051CF066235C
:1009B000F9F023C08EE190E0821B930B29853A85E4
:1009C0004B855C8504C056954795379527958A9544
:1009D000D2F76623B1F050954095309521953F4F61
:1009E0004F4F5F4F0EC020E030E040E050E009C0C4
:1009F0002FEF3FEF4FEF5FE704C020E030E040E033
:100A000050E8B901CA012C96E2E00C94441FEF9221
:100A1000FF920F931F937B018C0180E0E81680E02A
:100A2000F80681E0080780E0180788F48FEFE816E1
:100A3000F1040105110531F028F088E090E0A0E014
:100A4000B0E017C080E090E0A0E0B0E012C080E02D
:100A5000E81680E0F80680E0080781E0180728F033
:100A600088E190E0A0E0B0E004C080E190E0A0E088
:100A7000B0E020E230E040E050E0281B390B4A0BA8
:100A80005B0B04C016950795F794E7948A95D2F707
:100A9000F701EF57FF4F8081281B310941095109A8
:100AA000C9011F910F91FF90EF900895DF92EF928F
:100AB000FF920F931F93FC01E480F580068117815C
:100AC000D1808081823048F480E090E0A0E1B0E005
:100AD000E82AF92A0A2B1B2BA5C0843009F49FC0F1
:100AE000823021F4EE24FF24870105C0E114F104D3
:100AF0000105110519F4E0E0F0E096C06281738110
:100B00009FEF623879070CF05BC022E83FEF261BAD
:100B1000370B2A3131052CF020E030E040E050E086
:100B20002AC0B801A701022E04C076956795579593
:100B300047950A94D2F781E090E0A0E0B0E004C0CD
:100B4000880F991FAA1FBB1F2A95D2F70197A109E9
:100B5000B1098E219F21A023B1230097A105B105E2
:100B600021F081E090E0A0E0B0E09A01AB01282BF9
:100B7000392B4A2B5B2BDA01C9018F779070A0705B
:100B8000B07080349105A105B10539F427FF09C083
:100B9000205C3F4F4F4F5F4F04C0215C3F4F4F4F92
:100BA0005F4FE0E0F0E02030A0E03A07A0E04A0725
:100BB000A0E45A0710F0E1E0F0E079018A0127C0D3
:100BC0006038710564F5FB01E158FF4FD801C7019A
:100BD0008F779070A070B07080349105A105B10539
:100BE00039F4E7FE0DC080E490E0A0E0B0E004C07E
:100BF0008FE390E0A0E0B0E0E80EF91E0A1F1B1F93
:100C000017FF05C016950795F794E794319687E08E
:100C100016950795F794E7948A95D1F705C0EE24C9
:100C2000FF248701EFEFF0E06E2F67956627679549
:100C3000902F9F77D794DD24D7948E2F8695492FB8
:100C4000462B582F5D29B701CA011F910F91FF90C4
:100C5000EF90DF900895FC01DB01408151812281FA
:100C6000622F6F7770E0221F2227221F9381892F26
:100C7000880F822B282F30E0991F9927991F1196F2
:100C80009C93119721153105A9F541155105610571
:100C9000710511F482E037C082E89FEF13969C93B0
:100CA0008E9312979A01AB0167E0220F331F441F06
:100CB000551F6A95D1F783E08C930DC0220F331F27
:100CC000441F551F12968D919C911397019713966F
:100CD0009C938E931297203080E0380780E048077D
:100CE00080E4580758F314962D933D934D935C93ED
:100CF000179708952F3F310579F441155105610586
:100D0000710519F484E08C93089564FF03C081E0B9
:100D10008C9312C01C9210C02F57304013963C93F6
:100D20002E93129783E08C9387E0440F551F661F24
:100D3000771F8A95D1F7706414964D935D936D93E8
:100D40007C93179708951F93DC01FB019C919230CF
:100D500008F447C08081823008F443C0943051F4D5
:100D600011961C91843099F58181682F70E0611B88
:100D700071093FC0843021F0923031F48230B9F1F2
:100D80008181882389F12DC011961C9111978230A1
:100D9000F1F081811817D9F412962D913C91139797
:100DA000828193818217930794F028173907BCF04A
:100DB00014968D919D910D90BC91A02D248135812B
:100DC00046815781281739074A075B0718F4112312
:100DD00041F00AC082179307A407B50740F4112316
:100DE00019F061E070E005C06FEF7FEF02C060E0D6
:100DF00070E0CB011F910895DF93CF930F92CDB791
:100E0000DEB7898389818E3621F5A3E5B0E0E3E57D
:100E1000F0E080818F7B8C93A3E5B0E0E3E5F0E028
:100E20008081877F8C93A3E5B0E0E3E5F0E08081EB
:100E3000887F8C93A3E5B0E0E3E5F0E080818260F9
:100E40008C93A9E5B0E0E9E5F0E0808181608C93C6
:100E500074C08981813759F5A3E5B0E0E3E5F0E09E
:100E6000808180648C93A3E5B0E0E3E5F0E08081CD
:100E700088608C93A3E5B0E0E3E5F0E080818F7EAD
:100E80008C93A3E5B0E0E3E5F0E0808180628C9391
:100E9000A3E5B0E0E3E5F0E08081887F8C93A3E5F3
:100EA000B0E0E3E5F0E0808182608C9346C0898108
:100EB0008037E9F4A3E5B0E0E3E5F0E08081806409
:100EC0008C93A3E5B0E0E3E5F0E08081877F8C932D
:100ED000A3E5B0E0E3E5F0E08081887F8C93A3E5B3
:100EE000B0E0E3E5F0E0808182608C9326C08981E8
:100EF0008F3619F5A3E5B0E0E3E5F0E080818F7B64
:100F00008C93A3E5B0E0E3E5F0E0808188608C930A
:100F1000A3E5B0E0E3E5F0E08081887F8C93A3E572
:100F2000B0E0E3E5F0E0808182608C93A9E5B0E079
:100F3000E9E5F0E0808182608C930F90CF91DF91A2
:100F40000895DF93CF930F92CDB7DEB78983898160
:100F5000813091F5AFE4B0E0EFE4F0E080818E7F86
:100F60008C93AFE4B0E0EFE4F0E080818D7F8C9370
:100F7000AEE4B0E0EEE4F0E08081877F8C93AEE4F5
:100F8000B0E0EEE4F0E080818F7E8C93AEE4B0E0E0
:100F9000EEE4F0E08081887F8C93AEE4B0E0EEE494
:100FA000F0E0808182608C93A9E5B0E0E9E5F0E0B3
:100FB000808184608C93A5C089818D30C9F5AFE4B0
:100FC000B0E0EFE4F0E080818E7F8C93AFE4B0E09E
:100FD000EFE4F0E0808182608C93AEE4B0E0EEE478
:100FE000F0E0808188608C93AEE4B0E0EEE4F0E065
:100FF000808180618C93AFE4B0E0EFE4F0E0808129
:101000008F7E8C93AFE4B0E0EFE4F0E0808180620B
:101010008C93AEE4B0E0EEE4F0E08081887F8C93C6
:10102000AEE4B0E0EEE4F0E0808182608C9369C0D1
:101030008981853091F5AFE4B0E0EFE4F0E08081A4
:101040008E7F8C93AFE4B0E0EFE4F0E080818D7FA1
:101050008C93AEE4B0E0EEE4F0E0808188608C93A5
:10106000AEE4B0E0EEE4F0E080818F7E8C93AEE4FD
:10107000B0E0EEE4F0E08081887F8C93AEE4B0E0F5
:10108000EEE4F0E0808182608C93A9E5B0E0E9E5D0
:10109000F0E0808180618C9334C089818E3089F545
:1010A000AFE4B0E0EFE4F0E080818E7F8C93AFE4BA
:1010B000B0E0EFE4F0E080818D7F8C93AEE4B0E0AF
:1010C000EEE4F0E0808188608C93AEE4B0E0EEE482
:1010D000F0E080818F7E8C93AEE4B0E0EEE4F0E04F
:1010E0008081887F8C93AEE4B0E0EEE4F0E0808114
:1010F00082608C93A9E5B0E0E9E5F0E0808188604A
:101100008C930F90CF91DF910895DF93CF9300D010
:101110000F92CDB7DEB789837B836A838981882369
:1011200059F48A819B81009739F08A819B81909341
:1011300085018093840161C08981813059F48A815D
:101140009B81009739F08A819B81909387018093DE
:10115000860153C08981823059F48A819B8100972E
:1011600039F08A819B81909389018093880145C0E1
:101170008981833059F48A819B81009739F08A8173
:101180009B8190938B0180938A0137C08981843041
:1011900059F48A819B81009739F08A819B819093D1
:1011A0008D0180938C0129C08981853059F48A8111
:1011B0009B81009739F08A819B8190938F01809366
:1011C0008E011BC08981863059F48A819B810097EA
:1011D00039F08A819B8190939101809390010DC099
:1011E0008981873051F48A819B81009731F08A810F
:1011F0009B8190939301809392010F900F900F9099
:10120000CF91DF910895DF93CF9300D000D00F925C
:10121000CDB7DEB789837B836A838981282F30E04D
:101220003D832C838C819D818130910571F02C81CF
:101230003D812230310581F08C819D81009781F4C0
:10124000E2E5F0E08A8180830BC0ECE4F0E08A8183
:101250009B819183808304C0E4E4F0E08A818083F1
:101260000F900F900F900F900F90CF91DF910895F6
:10127000DF93CF9300D000D00F92CDB7DEB7898334
:101280007B836A838981282F30E03D832C838C8186
:101290009D818230910571F12C813D812330310592
:1012A0002CF48C819D81009761F02EC02C813D81B2
:1012B0002330310589F08C819D818430910599F02E
:1012C00023C08A819B818F3F910509F0E8F4ECE50A
:1012D000F0E08A81808318C0EAE4F0E08A819B8193
:1012E0009183808311C0E8E4F0E08A819B8191833F
:1012F00080830AC08A819B818F3F910509F020F489
:10130000E3E4F0E08A8180830F900F900F900F90BC
:101310000F90CF91DF910895DF93CF9300D000D04D
:101320000F92CDB7DEB789837B836A838981282FAB
:1013300030E03D832C838C819D818230910571F159
:101340002C813D81233031052CF48C819D810097C7
:1013500061F02EC02C813D812330310589F08C81D4
:101360009D818430910599F023C08A819B818F3FB4
:10137000910509F0E8F4ECE5F0E08A81808318C07B
:10138000EAE4F0E08A819B819183808311C0E8E4E4
:10139000F0E08A819B81918380830AC08A819B814E
:1013A0008F3F910509F020F4E3E4F0E08A81808327
:1013B0000F900F900F900F900F90CF91DF910895A5
:1013C000DF93CF9300D0CDB7DEB79A838983E6E46D
:1013D000F0E089819A81918380830F900F90CF9163
:1013E000DF910895DF93CF93CDB7DEB7AEE4B0E0E1
:1013F000EEE4F0E0808180648C93A9E5B0E0E9E55B
:10140000F0E0808180628C93CF91DF910895DF932B
:10141000CF930F92CDB7DEB789838981813041F4B4
:10142000A9E5B0E0E9E5F0E0808180628C930AC034
:101430008981823039F4A9E5B0E0E9E5F0E0808106
:101440008F7D8C930F90CF91DF910895DF93CF9391
:10145000CDB7DEB7E6E4F0E080819181CF91DF91F6
:101460000895DF93CF930F92CDB7DEB7898389813B
:10147000813041F4AEE4B0E0EEE4F0E080818064DD
:101480008C930AC08981823039F4AEE4B0E0EEE496
:10149000F0E080818F7B8C930F90CF91DF91089546
:1014A0001F920F920FB60F9211242F933F934F93D9
:1014B0005F936F937F938F939F93AF93BF93EF93BC
:1014C000FF93DF93CF93CDB7DEB7809184019091E6
:1014D0008501009729F0E0918401F091850109953B
:1014E000CF91DF91FF91EF91BF91AF919F918F913C
:1014F0007F916F915F914F913F912F910F900FBE10
:101500000F901F9018951F920F920FB60F921124F3
:101510002F933F934F935F936F937F938F939F93FB
:10152000AF93BF93EF93FF93DF93CF93CDB7DEB726
:101530008091860190918701009729F0E0918601C2
:10154000F09187010995CF91DF91FF91EF91BF91C4
:10155000AF919F918F917F916F915F914F913F914B
:101560002F910F900FBE0F901F9018951F920F9202
:101570000FB60F9211242F933F934F935F936F9366
:101580007F938F939F93AF93BF93EF93FF93DF93DB
:10159000CF93CDB7DEB780918801909189010097F4
:1015A00029F0E0918801F09189010995CF91DF91AF
:1015B000FF91EF91BF91AF919F918F917F916F912B
:1015C0005F914F913F912F910F900FBE0F901F9001
:1015D00018951F920F920FB60F9211242F933F93DD
:1015E0004F935F936F937F938F939F93AF93BF932B
:1015F000EF93FF93DF93CF93CDB7DEB780918A014E
:1016000090918B01009729F0E0918A01F0918B0174
:101610000995CF91DF91FF91EF91BF91AF919F918C
:101620008F917F916F915F914F913F912F910F908B
:101630000FBE0F901F9018951F920F920FB60F922A
:1016400011242F933F934F935F936F937F938F93C7
:101650009F93AF93BF93EF93FF93DF93CF93CDB758
:10166000DEB780918C0190918D01009729F0E09177
:101670008C01F0918D010995CF91DF91FF91EF9150
:10168000BF91AF919F918F917F916F915F914F919A
:101690003F912F910F900FBE0F901F9018951F92A2
:1016A0000F920FB60F9211242F933F934F935F9396
:1016B0006F937F938F939F93AF93BF93EF93FF931A
:1016C000DF93CF93CDB7DEB780918E0190918F01DC
:1016D000009729F0E0918E01F0918F010995CF914B
:1016E000DF91FF91EF91BF91AF919F918F917F918A
:1016F0006F915F914F913F912F910F900FBE0F907F
:101700001F9018951F920F920FB60F9211242F93CE
:101710003F934F935F936F937F938F939F93AF9379
:10172000BF93EF93FF93DF93CF93CDB7DEB7809155
:10173000900190919101009729F0E0919001F09132
:1017400091010995CF91DF91FF91EF91BF91AF91F9
:101750009F918F917F916F915F914F913F912F91C9
:101760000F900FBE0F901F9018951F920F920FB6FB
:101770000F9211242F933F934F935F936F937F9317
:101780008F939F93AF93BF93EF93FF93DF93CF9389
:10179000CDB7DEB78091920190919301009729F027
:1017A000E0919201F09193010995CF91DF91FF9122
:1017B000EF91BF91AF919F918F917F916F915F91C9
:1017C0004F913F912F910F900FBE0F901F90189542
:1017D000DF93CF93CDB7DEB7EAE3F0E01082E7E323
:1017E000F0E01082E4E3F0E08FEF8083E1E3F0E0EB
:1017F0001082EBE3F0E01082E8E3F0E01082E5E332
:10180000F0E01082E2E3F0E01082CF91DF910895E2
:10181000DF93CF93CDB7DEB7AFE5B0E0EFE5F0E013
:10182000808180688C93CF91DF910895DF93CF936F
:10183000CDB7DEB7AFE5B0E0EFE5F0E080818F77C0
:101840008C93CF91DF910895DF93CF93CDB7DEB71F
:10185000A5E5B0E0E5E5F0E0808182608C93A5E548
:10186000B0E0E5E5F0E080818E7F8C93ABE5B0E001
:10187000EBE5F0E0808180648C93CF91DF91089557
:10188000DF93CF93CDB7DEB7A5E5B0E0E5E5F0E0B7
:10189000808188608C93A5E5B0E0E5E5F0E080818B
:1018A0008B7F8C93ABE5B0E0EBE5F0E08081806866
:1018B0008C93CF91DF910895DF93CF93CDB7DEB7AF
:1018C000A4E5B0E0E4E5F0E080818F7B8C93ABE5AC
:1018D000B0E0EBE5F0E0808180628C93CF91DF9106
:1018E0000895DF93CF9300D000D0CDB7DEB78A83C1
:1018F00019828A81282F30E03C832B838B819C8145
:101900008230910529F12B813C812330310534F45B
:101910008B819C818130910561F047C02B813C8196
:101920002330310521F18B819C818430910571F147
:101930003CC0A5E5B0E0E5E5F0E080818E7F8C93CA
:10194000A5E5B0E0E5E5F0E080818D7F8C932FC0C8
:10195000A5E5B0E0E5E5F0E0808181608C93A5E548
:10196000B0E0E5E5F0E080818D7F8C9320C0A5E5B7
:10197000B0E0E5E5F0E080818E7F8C93A5E5B0E0F6
:10198000E5E5F0E0808182608C9311C0A5E5B0E0D0
:10199000E5E5F0E0808181608C93A5E5B0E0E5E5C8
:1019A000F0E0808182608C9302C081E0898389812C
:1019B0000F900F900F900F90CF91DF910895DF93CC
:1019C000CF9300D000D0CDB7DEB78A8319828A8149
:1019D000282F30E03C832B838B819C8182309105C2
:1019E00029F12B813C812330310534F48B819C819A
:1019F0008130910561F047C02B813C812330310556
:101A000021F18B819C818430910571F13CC0A5E569
:101A1000B0E0E5E5F0E08081877F8C93A5E5B0E05C
:101A2000E5E5F0E080818B7F8C932FC0A5E5B0E0E9
:101A3000E5E5F0E08081877F8C93A5E5B0E0E5E502
:101A4000F0E0808184608C9320C0A5E5B0E0E5E5FE
:101A5000F0E0808188608C93A5E5B0E0E5E5F0E0FA
:101A600080818B7F8C9311C0A5E5B0E0E5E5F0E0C7
:101A7000808188608C93A5E5B0E0E5E5F0E08081A9
:101A800084608C9302C081E0898389810F900F90DC
:101A90000F900F90CF91DF910895DF93CF9300D0F7
:101AA00000D0CDB7DEB78A8319828A81282F30E033
:101AB0003C832B838B819C818330910531F02B817A
:101AC0003C812430310549F010C0A4E5B0E0E4E5E4
:101AD000F0E080818F7B8C930AC0A4E5B0E0E4E560
:101AE000F0E0808180648C9302C081E089838981E9
:101AF0000F900F900F900F90CF91DF910895DF938B
:101B0000CF9300D0CDB7DEB78A8319828A81813026
:101B100041F4ABE5B0E0EBE5F0E0808180648C93CC
:101B200018C08A81813041F4ABE5B0E0EBE5F0E02C
:101B3000808180688C930DC08A81813041F4ABE54F
:101B4000B0E0EBE5F0E0808180628C9302C081E040
:101B5000898389810F900F90CF91DF910895DF9352
:101B6000CF9300D0CDB7DEB78A8319828A818130C6
:101B700041F4ABE5B0E0EBE5F0E080818F7B8C9346
:101B800018C08A81813041F4ABE5B0E0EBE5F0E0CC
:101B900080818F778C930DC08A81813041F4ABE5D1
:101BA000B0E0EBE5F0E080818F7D8C9302C081E0B6
:101BB000898389810F900F90CF91DF910895DF93F2
:101BC000CF9300D00F92CDB7DEB79B838A83198263
:101BD0008A819B81009739F08A819B81909395013E
:101BE0008093940102C082E0898389810F900F90D5
:101BF0000F90CF91DF910895DF93CF9300D00F9294
:101C0000CDB7DEB79B838A8319828A819B81009737
:101C100039F08A819B81909397018093960102C04D
:101C200082E0898389810F900F900F90CF91DF918F
:101C30000895DF93CF9300D00F92CDB7DEB79B838B
:101C40008A8319828A819B81009739F08A819B81DE
:101C5000909399018093980102C082E089838981E1
:101C60000F900F900F90CF91DF9108951F920F92D8
:101C70000FB60F9211242F933F934F935F936F935F
:101C80007F938F939F93AF93BF93EF93FF93DF93D4
:101C9000CF93CDB7DEB7E0919401F091950109950E
:101CA000E0919601F09197010995E0919801F091EA
:101CB00099010995CF91DF91FF91EF91BF91AF917C
:101CC0009F918F917F916F915F914F913F912F9154
:101CD0000F900FBE0F901F901895DF93CF93CDB745
:101CE000DEB727970FB6F894DEBF0FBECDBF89834E
:101CF0006A834B838981853008F0F4C08981882309
:101D000009F4F0C08A81883008F0ECC08B81813002
:101D100009F070C08981282F30E03F832E838E81A7
:101D20009F818230910551F12E813F812330310511
:101D300034F48E819F818130910561F0D3C02E8172
:101D40003F812330310571F18E819F81843091056F
:101D5000E9F1C8C0AAE3B0E0EAE3F0E08081482FEF
:101D60008A81282F30E081E090E0022E02C0880FA7
:101D7000991F0A94E2F7842B8C93B4C0A7E3B0E0D8
:101D8000E7E3F0E08081482F8A81282F30E081E06E
:101D900090E0022E02C0880F991F0A94E2F7842B6C
:101DA0008C93A0C0A4E3B0E0E4E3F0E08081482F8E
:101DB0008A81282F30E081E090E0022E02C0880F57
:101DC000991F0A94E2F7842B8C938CC0A1E3B0E0B6
:101DD000E1E3F0E08081482F8A81282F30E081E024
:101DE00090E0022E02C0880F991F0A94E2F7842B1C
:101DF0008C9378C08B81882309F074C08981282F47
:101E000030E03D832C838C819D818230910561F18E
:101E10002C813D812330310534F48C819D818130CA
:101E2000910569F05FC02C813D812330310589F136
:101E30008C819D818430910509F440C053C0AAE390
:101E4000B0E0EAE3F0E08081482F8A81282F30E07B
:101E500081E090E0022E02C0880F991F0A94E2F7F9
:101E6000809584238C933EC0A7E3B0E0E7E3F0E0E5
:101E70008081482F8A81282F30E081E090E0022E77
:101E800002C0880F991F0A94E2F7809584238C93EF
:101E900029C0A4E3B0E0E4E3F0E08081482F8A8128
:101EA000282F30E081E090E0022E02C0880F991FB9
:101EB0000A94E2F7809584238C9314C0A1E3B0E0E8
:101EC000E1E3F0E08081482F8A81282F30E081E033
:101ED00090E0022E02C0880F991F0A94E2F78095C5
:101EE00084238C9327960FB6F894DEBF0FBECDBF28
:101EF000CF91DF910895DF93CF93CDB7DEB72797CA
:101F00000FB6F894DEBF0FBECDBF89836A834B83C3
:101F10008981853008F0F3C08981882309F4EFC0F6
:101F20008A81883008F0EBC08B81813009F06FC066
:101F30008981282F30E03F832E838E819F818230DC
:101F4000910551F12E813F812330310534F48E818A
:101F50009F818130910561F05AC02E813F812330ED
:101F6000310571F18E819F8184309105E9F14FC077
:101F7000ABE3B0E0EBE3F0E08081482F8A81282FCB
:101F800030E081E090E0022E02C0880F991F0A9491
:101F9000E2F7842B8C933BC0A8E3B0E0E8E3F0E0E9
:101FA0008081482F8A81282F30E081E090E0022E46
:101FB00002C0880F991F0A94E2F7842B8C9327C0E4
:101FC000A5E3B0E0E5E3F0E08081482F8A81282F87
:101FD00030E081E090E0022E02C0880F991F0A9441
:101FE000E2F7842B8C9313C0A2E3B0E0E2E3F0E0CD
:101FF0008081482F8A81282F30E081E090E0022EF6
:1020000002C0880F991F0A94E2F7842B8C938B816E
:10201000882309F074C08981282F30E03D832C8308
:102020008C819D818230910561F12C813D8123302D
:10203000310534F48C819D818130910569F05FC058
:102040002C813D812330310589F18C819D81843043
:10205000910509F440C053C0ABE3B0E0EBE3F0E01E
:102060008081482F8A81282F30E081E090E0022E85
:1020700002C0880F991F0A94E2F7809584238C93FD
:102080003EC0A8E3B0E0E8E3F0E08081482F8A8119
:10209000282F30E081E090E0022E02C0880F991FC7
:1020A0000A94E2F7809584238C9329C0A5E3B0E0DD
:1020B000E5E3F0E08081482F8A81282F30E081E03D
:1020C00090E0022E02C0880F991F0A94E2F78095D3
:1020D00084238C9314C0A2E3B0E0E2E3F0E08081BB
:1020E000482F8A81282F30E081E090E0022E02C044
:1020F000880F991F0A94E2F7809584238C93279682
:102100000FB6F894DEBF0FBECDBFCF91DF9108951B
:10211000DF93CF9300D000D00F92CDB7DEB7898385
:102120006A838981853008F074C08981882309F425
:1021300070C08A81883008F06CC08981282F30E017
:102140003D832C834C815D814230510549F18C8166
:102150009D818330910534F42C813D8121303105FE
:1021600061F057C04C815D814330510561F18C8134
:102170009D8184309105D1F14CC0E9E3F0E080818C
:10218000282F30E08A81882F90E0A90102C0559560
:1021900047958A95E2F7CA01582F51705B833BC07F
:1021A000E6E3F0E08081282F30E08A81882F90E0FC
:1021B000A90102C0559547958A95E2F7CA01582FA3
:1021C00051705B8328C0E3E3F0E08081282F30E08A
:1021D0008A81882F90E0A90102C0559547958A957C
:1021E000E2F7CA01582F51705B8315C0E0E3F0E0BD
:1021F0008081282F30E08A81882F90E0A90102C0D9
:10220000559547958A95E2F7CA01582F51705B831F
:1022100002C08FEF8B838B810F900F900F900F90E8
:102220000F90CF91DF910895DF93CF9300D000D02E
:10223000CDB7DEB789836A8389818530B0F589811E
:10224000882399F18981282F30E03C832B838B816F
:102250009C8182309105D9F02B813C81233031055E
:1022600034F48B819C818130910561F01EC02B81FB
:102270003C812330310581F08B819C818430910534
:1022800081F013C0EAE3F0E08A8180830EC0E7E3C7
:10229000F0E08A81808309C0E4E3F0E08A818083F2
:1022A00004C0E1E3F0E08A8180830F900F900F90EB
:1022B0000F90CF91DF910895DF93CF9300D000D09E
:1022C000CDB7DEB789836A8389818530B0F589818E
:1022D000882399F18981282F30E03C832B838B81DF
:1022E0009C8182309105D9F02B813C8123303105CE
:1022F00034F48B819C818130910561F01EC02B816B
:102300003C812330310581F08B819C8184309105A3
:1023100081F013C0EBE3F0E08A8180830EC0E8E334
:10232000F0E08A81808309C0E5E3F0E08A81808360
:1023300004C0E2E3F0E08A8180830F900F900F9059
:102340000F90CF91DF910895DF93CF9300D000D00D
:10235000CDB7DEB7898389818530B8F58981882337
:10236000A1F18981282F30E03C832B838B819C81D4
:1023700082309105D9F02B813C812330310534F432
:102380008B819C818130910561F01FC02B813C8144
:102390002330310581F08B819C818430910581F05F
:1023A00014C0E9E3F0E090819A8311C0E6E3F0E025
:1023B00020812A830CC0E3E3F0E030813A8307C038
:1023C000E0E3F0E080818A8302C09FEF9A838A81F4
:1023D0000F900F900F900F90CF91DF910895DF93A2
:1023E000CF93CDB7DEB7A7E2B0E0E7E2F0E08081BF
:1023F00080648C93A7E2B0E0E7E2F0E080818F7721
:102400008C93A7E2B0E0E7E2F0E0808180628C93F9
:10241000A6E2B0E0E6E2F0E08081887F8C93A6E25D
:10242000B0E0E6E2F0E0808187608C93A6E2B0E065
:10243000E6E2F0E0808180688C93CF91DF9108958F
:10244000DF93CF930F92CDB7DEB78983A7E2B0E0D9
:10245000E7E2F0E08081807E8C93A7E2B0E0E7E2E3
:10246000F0E090818981892B8C93A6E2B0E0E6E2CE
:10247000F0E0808180648C93E6E2F0E080818295D8
:102480008F70882F90E0817090700097A9F3A6E27A
:10249000B0E0E6E2F0E0808180618C93E5E2F0E07C
:1024A00080810F90CF91DF910895DF93CF9300D07B
:1024B0000F92CDB7DEB78B83A7E2B0E0E7E2F0E0A2
:1024C0008081807E8C93A7E2B0E0E7E2F0E090812B
:1024D0008B81892B8C93A6E2B0E0E6E2F0E080816C
:1024E00080648C93E6E2F0E0808182958F70882F83
:1024F00090E0817090700097A9F3A6E2B0E0E6E268
:10250000F0E0808180618C93E5E2F0E08081882FAB
:1025100090E0A0E0B0E024EF31E040E050E0BC010A
:10252000CD010E94CB1EDC01CB01892F9A2FAB2F4E
:10253000BB279A83898389810F900F900F90CF9149
:10254000DF910895DF93CF93CDB7DEB784E064E0E9
:1025500041E00E946D0E8DE00E94A10780E29EE4A2
:102560000E94E009CF91DF910895DF93CF9300D0CF
:102570000F92CDB7DEB78B831A8219828B81882F99
:1025800090E0AA2797FDA095BA2FBC01CD010E942B
:102590005504DC01CB01BC01CD0121E137EC41EB5D
:1025A00050E40E941F02DC01CB01BC01CD0120E000
:1025B00030E04AE754E40E94F201DC01CB01BC01A7
:1025C000CD010E944900DC01CB019A8389832981D6
:1025D0003A8184E0B9010E9438090F900F900F9062
:1025E000CF91DF910895DF93CF93CDB7DEB7A1E30D
:1025F000B0E0E1E3F0E0808180628C93CF91DF91E5
:102600000895DF93CF93CDB7DEB7E4970FB6F89474
:10261000DEBF0FBECDBF9CAB8BAB4BA95CA9CA0183
:10262000880F991F9C01220F331F220F331F820F27
:10263000931F840F951F8C509E4F9AAB89ABA2E3DA
:10264000B0E0E2E3F0E0808180628C9389A99AA9EE
:10265000AA2797FDA095BA2FBC01CD010E94550471
:10266000DC01CB018DA79EA7AFA7B8AB6DA57EA55A
:102670008FA598A92BEA3AEA4AE250E40E941F0289
:10268000DC01CB0189A79AA7ABA7BCA769A57AA54E
:102690008BA59CA520E030E040E85FE30E94250484
:1026A00088231CF481E088A791C069A57AA58BA531
:1026B0009CA520E030E04FE753E40E94C5031816C4
:1026C0000CF07BC06DA57EA58FA598A920E030E019
:1026D0004AE754E40E941903DC01CB018CA39DA3BB
:1026E000AEA3BFA36CA17DA18EA19FA120E030E08D
:1026F0004AEF54E40E941F02DC01CB0188A399A396
:10270000AAA3BBA368A179A18AA19BA120E030E084
:1027100040E85FE30E94250488232CF481E090E0E8
:102720009F8F8E8F3FC068A179A18AA19BA120E0D5
:102730003FEF4FE757E40E94C50318164CF56CA114
:102740007DA18EA19FA120E030E040E251E40E94F3
:102750001F02DC01CB01BC01CD010E944900DC015C
:10276000CB019F8F8E8F0FC088EC90E09D8F8C8F58
:102770008C8D9D8D0197F1F79D8F8C8F8E8D9F8D08
:1027800001979F8F8E8F8E8D9F8D009769F724C044
:1027900068A179A18AA19BA10E944900DC01CB011B
:1027A0009F8F8E8F8E8D9F8D9B8F8A8F8A8D9B8D15
:1027B0000197F1F79B8F8A8F0FC069A57AA58BA52A
:1027C0009CA50E944900DC01CB0188A788A5898FC0
:1027D000898D8A95F1F7898FA2E3B0E0E2E3F0E01A
:1027E00080818F7D8C9320E23EE489A99AA9A9017A
:1027F000481B590BCA01AA2797FDA095BA2FBC0107
:10280000CD010E945504DC01CB018D8B9E8BAF8BDB
:10281000B88F6D897E898F89988D2BEA3AEA4AE2D2
:1028200050E40E941F02DC01CB01898B9A8BAB8B99
:10283000BC8B69897A898B899C8920E030E040E8EB
:102840005FE30E94250488231CF481E0888B91C0FB
:1028500069897A898B899C8920E030E04FE753E4CD
:102860000E94C50318160CF07BC06D897E898F8984
:10287000988D20E030E04AE754E40E941903DC011F
:10288000CB018C879D87AE87BF876C857D858E85C4
:102890009F8520E030E04AEF54E40E941F02DC01F3
:1028A000CB0188879987AA87BB87688579858A85C0
:1028B0009B8520E030E040E85FE30E942504882308
:1028C0002CF481E090E09F838E833FC068857985FA
:1028D0008A859B8520E03FEF4FE757E40E94C503C0
:1028E00018164CF56C857D858E859F8520E030E03F
:1028F00040E251E40E941F02DC01CB01BC01CD018A
:102900000E944900DC01CB019F838E830FC088ECBD
:1029100090E09D838C838C819D810197F1F79D834D
:102920008C838E819F8101979F838E838E819F816F
:10293000009769F724C0688579858A859B850E9400
:102940004900DC01CB019F838E838E819F819B8315
:102950008A838A819B810197F1F79B838A830FC0C9
:1029600069897A898B899C890E944900DC01CB01A5
:10297000888B8889898389818A95F1F78983E49690
:102980000FB6F894DEBF0FBECDBFCF91DF91089593
:10299000DF93CF93CDB7DEB72F970FB6F894DEBF96
:1029A0000FBECDBF8F8781E065E040E00E947B0FC6
:1029B00081E066E040E00E947B0F83E06F850E942B
:1029C0005C1181E067E041E00E947B0F80E090E0D5
:1029D000A0E8BFE38B879C87AD87BE876B857C852E
:1029E0008D859E8520E030E04AEF54E40E941F026E
:1029F000DC01CB018F839887A987BA876F8178859F
:102A000089859A8520E030E040E85FE30E94250454
:102A100088232CF481E090E09E838D833FC06F81FA
:102A2000788589859A8520E03FEF4FE757E40E943B
:102A3000C50318164CF56B857C858D859E8520E039
:102A400030E040E251E40E941F02DC01CB01BC01F6
:102A5000CD010E944900DC01CB019E838D830FC014
:102A600088EC90E09C838B838B819C810197F1F7AC
:102A70009C838B838D819E8101979E838D838D8125
:102A80009E81009769F714C06F81788589859A8542
:102A90000E944900DC01CB019E838D838D819E8144
:102AA0009A83898389819A810197F1F79A8389832F
:102AB00081E067E040E00E947B0F2F960FB6F8940C
:102AC000DEBF0FBECDBFCF91DF910895DF93CF93CF
:102AD000CDB7DEB72F970FB6F894DEBF0FBECDBFD0
:102AE0008F8781E065E041E00E947B0F81E066E036
:102AF00040E00E947B0F83E06F850E945C1181E0C3
:102B000067E041E00E947B0F80E090E0A0E8BFE337
:102B10008B879C87AD87BE876B857C858D859E85E1
:102B200020E030E04AEF54E40E941F02DC01CB01B8
:102B30008F839887A987BA876F81788589859A85D9
:102B400020E030E040E85FE30E94250488232CF475
:102B500081E090E09E838D833FC06F817885898579
:102B60009A8520E03FEF4FE757E40E94C50318160F
:102B70004CF56B857C858D859E8520E030E040E2BC
:102B800051E40E941F02DC01CB01BC01CD010E9477
:102B90004900DC01CB019E838D830FC088EC90E05F
:102BA0009C838B838B819C810197F1F79C838B8322
:102BB0008D819E8101979E838D838D819E8100975B
:102BC00069F714C06F81788589859A850E944900CC
:102BD000DC01CB019E838D838D819E819A838983C5
:102BE00089819A810197F1F79A83898381E067E06F
:102BF00040E00E947B0F2F960FB6F894DEBF0FBE09
:102C0000CDBFCF91DF910895DF93CF93CDB7DEB7DE
:102C1000E8970FB6F894DEBF0FBECDBF83E06FEF2D
:102C20000E94141181E065E041E00E946D0E81E098
:102C300066E041E00E946D0E81E067E041E00E94A5
:102C40006D0E80E090E0ACE0B2E48DAB9EABAFAB3C
:102C5000B8AF6DA97EA98FA998AD20E030E04AEF0A
:102C600054E40E941F02DC01CB0189AB9AABABABF1
:102C7000BCAB69A97AA98BA99CA920E030E040E807
:102C80005FE30E94250488232CF481E090E098AB58
:102C90008FA73FC069A97AA98BA99CA920E03FEF23
:102CA0004FE757E40E94C50318164CF56DA97EA99D
:102CB0008FA998AD20E030E040E251E40E941F026D
:102CC000DC01CB01BC01CD010E944900DC01CB013C
:102CD00098AB8FA70FC088EC90E09EA78DA78DA51D
:102CE0009EA50197F1F79EA78DA78FA598A901979B
:102CF00098AB8FA78FA598A9009769F714C069A909
:102D00007AA98BA99CA90E944900DC01CB0198AB50
:102D10008FA78FA598A99CA78BA78BA59CA501978A
:102D2000F1F79CA78BA788E30E94C81480E090E08D
:102D3000A0E8BFE38FA398A7A9A7BAA76FA178A51A
:102D400089A59AA520E030E04AEF54E40E941F02D2
:102D5000DC01CB018BA39CA3ADA3BEA36BA17CA183
:102D60008DA19EA120E030E040E85FE30E942504B1
:102D700088232CF481E090E09AA389A33FC06BA143
:102D80007CA18DA19EA120E03FEF4FE757E40E9478
:102D9000C50318164CF56FA178A589A59AA520E062
:102DA00030E040E251E40E941F02DC01CB01BC0193
:102DB000CD010E944900DC01CB019AA389A30FC079
:102DC00088EC90E098A38F8F8F8D98A10197F1F7F1
:102DD00098A38F8F89A19AA101979AA389A389A10A
:102DE0009AA1009769F714C06BA17CA18DA19EA147
:102DF0000E944900DC01CB019AA389A389A19AA171
:102E00009E8F8D8F8D8D9E8D0197F1F79E8F8D8F6B
:102E10008CE00E94C81480E090E0A0E8BFE3898FB6
:102E20009A8FAB8FBC8F698D7A8D8B8D9C8D20E0B6
:102E300030E04AEF54E40E941F02DC01CB018D8B8D
:102E40009E8BAF8BB88F6D897E898F89988D20E09E
:102E500030E040E85FE30E94250488232CF481E001
:102E600090E09C8B8B8B3FC06D897E898F89988D7C
:102E700020E03FEF4FE757E40E94C50318164CF5DA
:102E8000698D7A8D8B8D9C8D20E030E040E251E49D
:102E90000E941F02DC01CB01BC01CD010E94490050
:102EA000DC01CB019C8B8B8B0FC088EC90E09A8B64
:102EB000898B89899A890197F1F79A8B898B8B89FC
:102EC0009C8901979C8B8B8B8B899C89009769F7D8
:102ED00014C06D897E898F89988D0E944900DC011C
:102EE000CB019C8B8B8B8B899C89988B8F878F8553
:102EF00098890197F1F7988B8F8781E00E94C81419
:102F000080E090E0A0E0B0E48B879C87AD87BE872F
:102F10006B857C858D859E8520E030E04AEF54E40A
:102F20000E941F02DC01CB018F839887A987BA8793
:102F30006F81788589859A8520E030E040E85FE3FD
:102F40000E94250488232CF481E090E09E838D83E9
:102F50003FC06F81788589859A8520E03FEF4FE7F4
:102F600057E40E94C50318164CF56B857C858D854A
:102F70009E8520E030E040E251E40E941F02DC0127
:102F8000CB01BC01CD010E944900DC01CB019E8335
:102F90008D830FC088EC90E09C838B838B819C8118
:102FA0000197F1F79C838B838D819E8101979E838E
:102FB0008D838D819E81009769F714C06F8178851C
:102FC00089859A850E944900DC01CB019E838D830F
:102FD0008D819E819A83898389819A810197F1F7F6
:102FE0009A838983E8960FB6F894DEBF0FBECDBFF3
:102FF000CF91DF910895DF93CF9300D00F92CDB79B
:10300000DEB79B838A8319820EC08981282F30E026
:103010008A819B81FC01E20FF31F80810E9466156B
:1030200089818F5F89838981282F30E08A819B8104
:10303000FC01E20FF31F8081882339F70F900F9076
:103040000F90CF91DF910895DF93CF9300D00F922F
:10305000CDB7DEB78A836B8319828A81882319F4FE
:103060008B81898306C08A81813019F48B81805CD1
:10307000898389818068898389810E94C8140F901F
:103080000F900F90CF91DF910895DF93CF93CDB73D
:10309000DEB727970FB6F894DEBF0FBECDBF9C8377
:1030A0008B836D834E832F831A8219828D81882FA3
:1030B00090E0880F991F880F991F880F991F8983A7
:1030C0008981805C0E94C8141A820EC08A81282FD0
:1030D00030E08B819C81FC01E20FF31F80810E9414
:1030E00066158A818F5F8A838A81883078F38E8122
:1030F0006F810E9424188D810E94661527960FB655
:10310000F894DEBF0FBECDBFCF91DF910895DF935E
:10311000CF93CDB7DEB761970FB6F894DEBF0FBE81
:10312000CDBF6E877F87888B998B8FEF8A838A814B
:103130008F5F8A838E859F85A889B9892AE030E0D0
:1031400040E050E0BC01CD010E94F61EDC01CB0145
:103150008B838A81282F332727FD30958B81482F39
:10316000405DCE010496FC01E20FF31F40838E8583
:103170009F85A889B9892AE030E040E050E0BC0191
:10318000CD010E94F61EDA01C9018E879F87A88BA8
:10319000B98B8E859F85A889B9890097A105B1054E
:1031A00031F68A81898310C08981282F332727FD32
:1031B0003095CE010496FC01E20FF31F80810E943E
:1031C0006615898181508983898188236CF761968E
:1031D0000FB6F894DEBF0FBECDBFCF91DF9108953B
:1031E000DF93CF93CDB7DEB781E00E94C814CF91B3
:1031F000DF910895DF93CF93CDB7DEB783E060E032
:1032000041E00E946D0E83E061E041E00E946D0E9E
:10321000CF91DF910895DF93CF93CDB7DEB783E0F1
:1032200060E040E00E947B0F83E061E041E00E94AB
:103230007B0FCF91DF910895DF93CF93CDB7DEB7AA
:1032400083E061E040E00E947B0F83E060E041E0CA
:103250000E947B0FCF91DF910895DF93CF93CDB77D
:10326000DEB783E061E040E00E947B0F83E060E036
:1032700040E00E947B0FCF91DF9108950F931F9341
:10328000DF93CF93CDB7DEB7C457D0400FB6F894D5
:10329000DEBF0FBECDBF82E061E00E94141181E06D
:1032A00060E040E00E946D0E81E061E040E00E943D
:1032B0006D0E81E062E041E00E946D0E81E063E00E
:1032C00041E00E946D0E0E94EF110E9404160E94C0
:1032D000A2120E94F31282E067E00E948810FE01B1
:1032E000EC58FF4F808382E066E00E948810FE0168
:1032F000ED58FF4F808382E065E00E948810FE0158
:10330000EE58FF4F808382E064E00E948810FE0147
:10331000EF58FF4F808380E690E00E94FB1780917A
:103320008301282F30E080919E01882F90E0A90131
:10333000481B590BCA01AA2797FDA095BA2FBC01BB
:10334000CD010E94871881E060E00E9424188CE67D
:1033500090E00E94FB1780919A0190919B01CC0113
:10336000A0E0B0E0BC01CD010E94871880E00E947F
:103370002012882F90E090939D0180939C0181E022
:103380000E94551293E0692F0E94EA1E882F90E058
:1033900090939B0180939A01FE01EC58FF4F80812E
:1033A000882309F0BEC090919E01809183019817F7
:1033B00008F0B7C08AE50E94B512FE01E359FF4F3D
:1033C00080E090E0A8E4B3E480839183A283B38398
:1033D0008E0107591F4FFE01E359FF4F6081718134
:1033E0008281938120E030E04AEF54E40E941F0282
:1033F000DC01CB01F80180839183A283B383FE01BA
:10340000E759FF4F608171818281938120E030E034
:1034100040E85FE30E942504882344F4FE01E95953
:10342000FF4F81E090E09183808364C0FE01E75903
:10343000FF4F608171818281938120E03FEF4FE7F0
:1034400057E40E94C50318160CF043C0FE01E3596F
:10345000FF4F608171818281938120E030E040E202
:1034600051E40E941F02DC01CB018E0109591F4F5C
:10347000BC01CD010E944900DC01CB01F801918320
:1034800080831FC0FE01EB59FF4F88EC90E09183D1
:103490008083FE01EB59FF4F808191810197F1F705
:1034A000FE01EB59FF4F91838083DE01A959BF4F85
:1034B000FE01E959FF4F80819181019711969C93FC
:1034C0008E93FE01E959FF4F808191810097D1F6DB
:1034D00028C08E0109591F4FFE01E759FF4F608137
:1034E0007181828193810E944900DC01CB01F80146
:1034F00091838083DE01AD59BF4FFE01E959FF4F33
:103500008081918111969C938E93FE01ED59FF4F1E
:10351000808191810197F1F7FE01ED59FF4F918371
:103520008083FE01ED58FF4F8081882309F0C8C0D9
:10353000FE01E15AFF4F80E090E0A8E4B3E480830D
:103540009183A283B3838E01055A1F4FFE01E15A76
:10355000FF4F608171818281938120E030E04AEFEA
:1035600054E40E941F02DC01CB01F80180839183A7
:10357000A283B383FE01E55AFF4F6081718182818E
:10358000938120E030E040E85FE30E942504882337
:1035900044F4FE01E75AFF4F81E090E0918380837D
:1035A00064C0FE01E55AFF4F608171818281938181
:1035B00020E03FEF4FE757E40E94C50318160CF0D8
:1035C00043C0FE01E15AFF4F608171818281938186
:1035D00020E030E040E251E40E941F02DC01CB0118
:1035E0008E01075A1F4FBC01CD010E944900DC012A
:1035F000CB01F801918380831FC0FE01E95AFF4F80
:1036000088EC90E091838083FE01E95AFF4F80812E
:1036100091810197F1F7FE01E95AFF4F9183808371
:10362000DE01A75ABF4FFE01E75AFF4F808191810B
:10363000019711969C938E93FE01E75AFF4F80816C
:1036400091810097D1F627C08E01075A1F4FFE01C6
:10365000E55AFF4F60817181828193810E94490008
:10366000DC01CB01F80191838083DE01AB5ABF4FAF
:10367000FE01E75AFF4F808191818D939C93FE015B
:10368000EB5AFF4F808191810197F1F7FE01EB5AD0
:10369000FF4F9183808380E00E94B5128091820168
:1036A000813089F490919E0180918301981758F49C
:1036B00080919E018F5F80939E011092820103C0D2
:1036C00081E080938201FE01EE58FF4F80818823C4
:1036D00009F0BDC080919E01882309F4B8C080E044
:1036E00090E00E940113FE01EF5AFF4F80E090E04E
:1036F000A8E4B3E480839183A283B3838E01035B48
:103700001F4FFE01EF5AFF4F6081718182819381CB
:1037100020E030E04AEF54E40E941F02DC01CB01BC
:10372000F80180839183A283B383FE01E35BFF4FA3
:10373000608171818281938120E030E040E85FE325
:103740000E942504882344F4FE01E55BFF4F81E0DD
:1037500090E09183808364C0FE01E35BFF4F608152
:1037600071818281938120E03FEF4FE757E40E940F
:10377000C50318160CF043C0FE01EF5AFF4F6081DD
:1037800071818281938120E030E040E251E40E9427
:103790001F02DC01CB018E01055B1F4FBC01CD0177
:1037A0000E944900DC01CB01F801918380831FC096
:1037B000FE01E75BFF4F88EC90E091838083FE0180
:1037C000E75BFF4F808191810197F1F7FE01E75B95
:1037D000FF4F91838083DE01A55BBF4FFE01E55B58
:1037E000FF4F80819181019711969C938E93FE01EA
:1037F000E55BFF4F808191810097D1F628C08E0153
:10380000055B1F4FFE01E35BFF4F60817181828189
:1038100093810E944900DC01CB01F80191838083F0
:10382000DE01A95BBF4FFE01E55BFF4F8081918107
:1038300011969C938E93FE01E95BFF4F80819181ED
:103840000197F1F7FE01E95BFF4F91838083FE0151
:10385000EF58FF4F8081882309F099C0FE01ED5B8E
:10386000FF4F80E090E0A8E4B3E480839183A283DB
:10387000B3838E01015C1F4FFE01ED5BFF4F608142
:1038800071818281938120E030E04AEF54E40E940C
:103890001F02DC01CB01F80180839183A283B383F3
:1038A000FE01FF96608171818281938120E030E08A
:1038B00040E85FE30E94250488232CF481E090E037
:1038C0009EAF8DAF46C0FE01FF96608171818281FF
:1038D000938120E03FEF4FE757E40E94C50318169D
:1038E00064F5FE01ED5BFF4F608171818281938100
:1038F00020E030E040E251E40E941F02DC01CB01F5
:10390000BC01CD010E944900DC01CB019EAF8DAF0F
:103910000FC088EC90E09CAF8BAF8BAD9CAD019756
:10392000F1F79CAF8BAF8DAD9EAD01979EAF8DAF84
:103930008DAD9EAD009769F716C0FE01FF966081C0
:103940007181828193810E944900DC01CB019EAF8D
:103950008DAF8DAD9EAD9AAF89AF89AD9AAD019710
:10396000F1F79AAF89AF8AE590E00E940113809148
:103970008101813079F480919E01882359F08091F2
:103980009E01815080939E011092810103C081E0CD
:103990008093810180919C0190919D0186399105D0
:1039A00008F078C081E063E041E00E947B0F80E096
:1039B00090E0A8E4B2E48DAB9EABAFABB8AF6DA91D
:1039C0007EA98FA998AD20E030E04AEF54E40E9430
:1039D0001F02DC01CB0189AB9AABABABBCAB69A9D5
:1039E0007AA98BA99CA920E030E040E85FE30E941F
:1039F000250488232CF481E090E098AB8FA73FC08A
:103A000069A97AA98BA99CA920E03FEF4FE757E469
:103A10000E94C50318164CF56DA97EA98FA998AD13
:103A200020E030E040E251E40E941F02DC01CB01C3
:103A3000BC01CD010E944900DC01CB0198AB8FA7EE
:103A40000FC088EC90E09EA78DA78DA59EA501973D
:103A5000F1F79EA78DA78FA598A9019798AB8FA77F
:103A60008FA598A9009769F794C069A97AA98BA92D
:103A70009CA90E944900DC01CB0198AB8FA78FA5C0
:103A800098A99CA78BA78BA59CA50197F1F79CA74C
:103A90008BA77FC080919C0190919D0186399105F3
:103AA00008F477C081E063E040E00E947B0F80E093
:103AB00090E0A8E4B2E48FA398A7A9A7BAA76FA142
:103AC00078A589A59AA520E030E04AEF54E40E9449
:103AD0001F02DC01CB018BA39CA3ADA3BEA36BA1F2
:103AE0007CA18DA19EA120E030E040E85FE30E9430
:103AF000250488232CF481E090E09AA389A33FC099
:103B00006BA17CA18DA19EA120E03FEF4FE757E480
:103B10000E94C50318164CF56FA178A589A59AA532
:103B200020E030E040E251E40E941F02DC01CB01C2
:103B3000BC01CD010E944900DC01CB019AA389A3FD
:103B40000FC088EC90E098A38F8F8F8D98A101977C
:103B5000F1F798A38F8F89A19AA101979AA389A3BE
:103B600089A19AA1009769F714C06BA17CA18DA1CE
:103B70009EA10E944900DC01CB019AA389A389A1DF
:103B80009AA19E8F8D8F8D8D9E8D0197F1F79E8FBF
:103B90008D8F80919A0190919B018233910508F459
:103BA00078C081E062E041E00E947B0F80E090E01D
:103BB000A8E4B2E4898F9A8FAB8FBC8F698D7A8D20
:103BC0008B8D9C8D20E030E04AEF54E40E941F0270
:103BD000DC01CB018D8B9E8BAF8BB88F6D897E897D
:103BE0008F89988D20E030E040E85FE30E94250453
:103BF00088232CF481E090E09C8B8B8B3FC06D89F7
:103C00007E898F89988D20E03FEF4FE757E40E942F
:103C1000C50318164CF5698D7A8D8B8D9C8D20E02F
:103C200030E040E251E40E941F02DC01CB01BC0104
:103C3000CD010E944900DC01CB019C8B8B8B0FC016
:103C400088EC90E09A8B898B89899A890197F1F7A2
:103C50009A8B898B8B899C8901979C8B8B8B8B8909
:103C60009C89009769F794C06D897E898F89988DAA
:103C70000E944900DC01CB019C8B8B8B8B899C893A
:103C8000988B8F878F8598890197F1F7988B8F870D
:103C90007FC080919A0190919B018233910508F039
:103CA00077C081E062E040E00E947B0F80E090E01E
:103CB000A8E4B2E48B879C87AD87BE876B857C8543
:103CC0008D859E8520E030E04AEF54E40E941F027B
:103CD000DC01CB018F839887A987BA876F817885AC
:103CE00089859A8520E030E040E85FE30E94250462
:103CF00088232CF481E090E09E838D833FC06F8108
:103D0000788589859A8520E03FEF4FE757E40E9448
:103D1000C50318164CF56B857C858D859E8520E046
:103D200030E040E251E40E941F02DC01CB01BC0103
:103D3000CD010E944900DC01CB019E838D830FC021
:103D400088EC90E09C838B838B819C810197F1F7B9
:103D50009C838B838D819E8101979E838D838D8132
:103D60009E81009769F714C06F81788589859A854F
:103D70000E944900DC01CB019E838D838D819E8151
:103D80009A83898389819A810197F1F79A8389833C
:103D90000E94F018A0CA629FD001739FF001829F19
:103DA000E00DF11D649FE00DF11D929FF00D839FCA
:103DB000F00D749FF00D659FF00D9927729FB00D67
:103DC000E11DF91F639FB00DE11DF91FBD01CF017A
:103DD00011240895991B79E004C0991F961708F0E3
:103DE000961B881F7A95C9F780950895A1E21A2E2F
:103DF000AA1BBB1BFD010DC0AA1FBB1FEE1FFF1F8F
:103E0000A217B307E407F50720F0A21BB30BE40BDE
:103E1000F50B661F771F881F991F1A9469F7609525
:103E20007095809590959B01AC01BD01CF010895DF
:103E30002F923F924F925F926F927F928F929F92BA
:103E4000AF92BF92CF92DF92EF92FF920F931F93A8
:103E5000CF93DF93CDB7DEB7CA1BDB0B0FB6F89459
:103E6000DEBF0FBECDBF09942A88398848885F8499
:103E70006E847D848C849B84AA84B984C884DF800A
:103E8000EE80FD800C811B81AA81B981CE0FD11DEE
:103E90000FB6F894DEBF0FBECDBFED010895F894C4
:023EA000FFCF52
:103EA20020417661696C61626C65200054656D70B9
:103EB20065726174757265200000000000000000E8
:103EC20000000102020303030304040404040404C3
:103ED2000405050505050505050505050505050591
:103EE2000506060606060606060606060606060671
:103EF2000606060606060606060606060606060660
:103F02000607070707070707070707070707070740
:103F1200070707070707070707070707070707072F
:103F2200070707070707070707070707070707071F
:103F3200070707070707070707070707070707070F
:103F420007080808080808080808080808080808F0
:103F520008080808080808080808080808080808DF
:103F620008080808080808080808080808080808CF
:103F720008080808080808080808080808080808BF
:103F820008080808080808080808080808080808AF
:103F9200080808080808080808080808080808089F
:103FA200080808080808080808080808080808088F
:103FB200080808080808080808080808080808087F
:043FC20008010105EC
:00000001FF
